:030000000209A64C
:0C09A600787FE4F6D8FD75812502081367
:1009710000CF000C006B006D00AC00E500E7004CFF
:1009810000EF00ED000B0065006E00010064000A3D
:02099100000064
:1008130012086120B2FDE51A703AE51B1460151445
:10082300601A14601F14602424047028120927120C
:10083300094D80DF12092712057A80D71209271282
:10084300041380CF12092712027880C712092712D6
:0E085300000E80BF120927E4F51AF51B80B5D0
:10086100750C02750D58750800750901750E007536
:100871000F01E4F51AF51BF51CF51DF514F515F539
:1008810016F517758911758C3C758AB0D2AFD2A94E
:10089100F510F51175A0FFD2A7D2A6F518751901AB
:0B08A100F50A750B01F512751301221A
:10092700750E00750F01E4F516F51775A0FFD2A730
:10093700D2A6F51CF51DF518751901F50A750B01F9
:06094700F51275130122F8
:10094D0030B203120003E4F5A0C2A7C2A67580FF62
:10095D001206408E108F11E5116401451070E1F5FE
:04096D0010F511224E
:10057A0030B203120003D3E51D9406E51C6480948F
:10058A00804005E4F51CF51D1208ACE51D25E0FFC9
:10059A00E51C33FE74852FF58274093EF583E493D6
:1005AA00FA740193FB7C007D64FFAE0212075FEED2
:1005BA004F24FF92A27C007D0AAF03AE0212075FAE
:1005CA007C007D0A12075FEC4D24FF92A1E51D25F0
:1005DA00E0FFE51C33FE74852FF58274093EF5832E
:1005EA00E493FE740193FF7C007D0A12075FEC4DD1
:1005FA0024FF92A0AE0EAF0F7C007D231206F812E4
:10060A000809D2A2D2A1D2A0AE0EAF0F7C007D23E0
:10061A001206F8C3E50D9FFFE50C9EFE12080912AB
:10062A0006408E108F11E511640145106003020522
:06063A007AF510F5112213
:10041300E4F520F52130B2031200031206408E10DA
:100423008F11AF17AE161208B0E5116402451070B4
:10043300E4F510F51185161E85171FD28C30B20313
:10044300120003E52125E0FFE52033FE74852FF537
:100453008274093EF583E493FA740193FB7C007D77
:1004630064FFAE0212075FEE4F24FF92A27C007D71
:100473000AAF03AE0212075F7C007D0A12075FEC2E
:100483004D24FF92A1E52125E0FFE52033FE74858D
:100493002FF58274093EF583E493FE740193FF7C88
:1004A300007D0A12075FEC4D24FF92A0E51564144A
:1004B30045146003020561F514F515AF17AE161266
:1004C30008B0E517151770021516E517F47003E564
:1004D30016F46003020561851E16851F170521E5C5
:1004E3002170020520D39406E520648094804005A2
:1004F300E4F520F521E52125E0FFE52033FE7485B1
:100503002FF58274093EF583E493FA740193FB7C1F
:10051300007D64FFAE0212075FEE4F24FF92A27CC0
:10052300007D0AAF03AE0212075F7C007D0A12074B
:100533005FEC4D24FF92A1E52125E0FFE52033FE8A
:1005430074852FF58274093EF583E493FE74019359
:10055300FF7C007D0A12075FEC4D24FF92A0120678
:10056300408E108F11E511640145106003020440B1
:06057300F510F511C28C29
:01057900225F
:10027800751E00751F017520007521017522007516
:10028800230130B203120003D3E51D9402E51C6478
:100298008094804005E4F51CF51DE51C600302030D
:1002A800FCE51D14605714700302037824026003F0
:1002B8000203FC850E1E850F1F1208ACC2A2AE0EEB
:1002C800AF0F7C007D231206F8120809D2A2AE0EE9
:1002D800AF0F7C007D231206F8C3E50D9FFFE50CE8
:1002E8009EFE120809C2A1AE20AF217C007D231218
:1002F80006F8120809D2A1AE20AF218048850E2049
:10030800850F211208ACC2A1AE0EAF0F7C007D2371
:100318001206F8120809D2A1AE0EAF0F7C007D2399
:100328001206F8C3E50D9FFFE50C9EFE120809C2F0
:10033800A2AE1EAF1F7C007D231206F8120809D258
:10034800A2AE1EAF1F7C007D231206F8C3E50D9FE9
:10035800FFE50C9EFE120809C2A0AE22AF237C0066
:100368007D231206F8120809D2A0AE22AF238071AD
:10037800850E22850F231208ACC2A0AE0EAF0F7CEB
:10038800007D231206F8120809D2A0AE0EAF0F7C2A
:10039800007D231206F8C3E50D9FFFE50C9EFE12B3
:1003A8000809C2A1AE20AF217C007D231206F812F5
:1003B8000809D2A1AE20AF217C007D231206F8C324
:1003C800E50D9FFFE50C9EFE120809C2A2AE1EAF06
:1003D8001F7C007D231206F8120809D2A2AE1EAFB8
:1003E8001F7C007D231206F8C3E50D9FFFE50C9ED8
:1003F800FE1208091206408E108F11E5116401459E
:0A04080010600302028AF510F511DE
:0104120022C7
:10000E00E4F51EF51FF520F521F50875090130B24E
:10001E0003120003E51C600302025CE51D14606B15
:10002E001470030200EF14700302015024036003E6
:10003E0002025CC2A2AF09AE08120809D2A2C374B2
:10004E00589509FF74029508FE120809E51F451E12
:10005E0070180509E5097002050864577004E50873
:10006E0064026003020261020123E51F6401451E62
:10007E006003020261E509150970021508E50964BD
:10008E000145086003020261020149C2A1AF09AE37
:10009E0008120809D2A1C374589509FF7402950875
:1000AE00FE120809E51F451E70170509E5097002C5
:1000BE00050864577004E50864026003020261805B
:1000CE0054E51F6401451E6003020261E50915092E
:1000DE0070021508E509640145086003020261809B
:1000EE005AC2A0AF09AE08120809D2A0C37458951F
:1000FE0009FF74029508FE120809E51F451E701DC2
:10010E000509E5097002050864577004E5086402E4
:10011E006003020261F51E751F01020261E51F6494
:10012E0001451E6003020261E509150970021508FA
:10013E00E509640145086003020261F51EF51F0220
:10014E000261E521640645207071120795900985BC
:10015E00E493FA740193FB7C007D64FFAE021207F8
:10016E005FEE4F24FF92A27C007D0AAF03AE021217
:10017E00075F7C007D0A12075FEC4D24FF92A1E41D
:10018E0093FE740193FF7C007D0A12075FEC4D24F1
:10019E00FF92A0AF09AE081208090509E509700221
:1001AE000508642B7004E50864016003020261F522
:1001BE0008750901F520F521020261120795E52166
:1001CE0025E0FFE52033FE74872FF58274093EF596
:1001DE0083E493FA740193FB7C007D64FFAE0212FC
:1001EE00075FEE4F24FF92A27C007D0AAF03AE02A2
:1001FE0012075F7C007D0A12075FEC4D24FF92A16F
:10020E00E52125E0FFE52033FE74872FF582740982
:10021E003EF583E493FE740193FF7C007D0A120782
:10022E005FEC4D24FF92A0AF09AE08120809050934
:10023E00E50970020508B42B1AE508B40115750816
:10024E00007509010521E521700905208005E4F5F9
:10025E001CF51D1206408E108F11E511640145101C
:09026E00600302001CF510F511FB
:010277002264
:1006400020901A7F0A7E00120909209010051BE5F0
:100650001B7002051A3090FD7E007F012220912040
:100660007F0A7E00120909209116051DE51D700202
:10067000051C750E00750F013091FD7E007F022272
:100680002093347F0A7E0012090920932A050FE582
:100690000F7002050E6411450E7005F50E750F0101
:1006A0000517E51770020516640A45167004F5165D
:1006B000F5173093FD803D20923A7F0A7E001209A3
:1006C00009209230E50F150F7002150EE50F450E4B
:1006D0007005F50E750F10E517151770021516E564
:1006E00017B4FF0BE516B4FF067516007517093031
:0806F00092FD8000E4FEFF22F0
:0408AC00AF0FAE0ECE
:0408B000AB07AA06E2
:1008B4007C007D0A12070A8F828E83AE02AF037C0E
:1008C400007D0A12070A8C248D25E5824583601079
:1008D400C2A6D2A7E58225E0FFE5831208F38000D3
:0E08E400C2A7D2A6E52525E0FFE5241208F301
:0108F20022E3
:1008F30033FE74712FF58274093EF583E47401931A
:06090300F5807F057E0077
:10090900D3EF9400EE940040147D6E7C00ED1D70D1
:0D091900011CED4C70F7EF1F70E61E80E32F
:0109260022AE
:10079500E52125E0FFE52033FE74852FF5827409F8
:1007A5003EF583E493FA740193FB7C007D64FFAE10
:1007B5000212075FEE4F24FF92A27C007D0AAF0371
:1007C500AE0212075F7C007D0A12075FEC4D24FF25
:1007D50092A1E52125E0FFE52033FE74852FF58202
:1007E50074093EF583E493FE740193FF7C007D0A52
:1007F50012075FEC4D24FF92A0C3742C9509FF747A
:04080500019508FE53
:0A080900EF1F70011E144E70F7225D
:03000B0002099354
:10099300C0E0758C3C758AB00515E5157002051429
:0309A300D0E0326F
:03000300020000F8
:1006F800EF8DF0A4A8F0CF8CF0A428CE8DF0A42E16
:02070800FE22CF
:10070A00BC000BBE0029EF8DF084FFADF022E4CCD3
:10071A00F875F008EF2FFFEE33FEEC33FCEE9DEC9C
:10072A00984005FCEE9DFE0FD5F0E9E4CEFD22EDE2
:10073A00F8F5F0EE8420D21CFEADF075F008EF2F2C
:10074A00FFED33FD4007985006D5F0F222C398FD1D
:05075A000FD5F0EA22BA
:10075F00C2D5EC30E709B2D5E4C39DFDE49CFCEEB5
:10076F0030E715B2D5E4C39FFFE49EFE12070AC31C
:10077F00E49DFDE49CFC800312070A30D507C3E417
:06078F009FFFE49EFE2224
:00000001FF
